:03000000020914DE
:0C091400787FE4F6D8FD75812302095BB2
:1009A000456E7465722050617373776F72643A207C
:1009B00000436F72726563742050617373776F7256
:1009C000640020416363657373204772616E7465D0
:1009D0006420002057726F6E672050617373776FC9
:1009E00072642000204163636573732044656E69FF
:1009F000656420200031323341343536423738398E
:060A0000432A30234400EC
:100A8D000909313541382A44362300091420202024
:080A9D00202020202000C18070
:100A0600E4F5A0C282C280C2817F38FE120ABF12FC
:100A16000A447F067E00120ABF120A447F0C7E003B
:100A2600120ABF120A447F017E00120ABF120A444C
:070A36007F807E00020ABF71
:0B0A3D007FC07E00120ABF7F047E0015
:100A4800E4FDFCC3ED9FEC9E5015E4FBFA0BBB00E4
:0F0A5800010ABA01F8BB7EF50DBD00010C80E468
:010A6700226C
:100ABF00C280C281D2828FA07F0A7E00120A48C2F2
:020ACF00822281
:100AD100D280C281D2828FA07F0A7E00120A48C2D0
:020AE10082226F
:100A68008B218A228923AB21AA22A923120AA660F4
:100A7800130523E5237002052214F9120AA6FF12B2
:050A88000AD180E2220A
:10080000D200120A067F80120A3F7BFF7A0979A084
:10081000120A68120A3DE4F590F51EE4F51275B06F
:100820000F7F0AFE120A48E5B0540FF513E5136472
:100830000F600BE5B0540FF51375901080EF7F0A31
:100840007E00120A48E513B40F0BE5B0540FF51300
:1008500075902080F07F147E00120A48E5B0540F96
:10086000F513640F60B5759040750810E4F51DC36D
:1008700074FF9508F5B0E5B0540FF513640F6038B8
:10088000C3740F9513F513E5136408600A0512E5A8
:100890001325E0F51380F0E5129009F593F513FFA9
:1008A000120AD17414251EF8A6137409251EF8E641
:1008B00065136019C200801574042512F512E5084D
:1008C00025E0F508051DE51DC3940440A2E4F512DA
:1008D000051EE51EC39408500302081B7F807E009E
:1008E000300017120A417BFF7A0979B1120A6812A7
:1008F0000A3D7BFF7A0979C28015120A417BFF7A93
:100900000979D3120A68120A3D7BFF7A0979E41249
:040910000A6880FEF3
:10092000020800E493A3F8E493A34003F68001F2E5
:1009300008DFF48029E493A3F85407240CC8C333D8
:10094000C4540F4420C8834004F456800146F6DFA7
:10095000E4800B0102040810204080900A8DE47EA0
:10096000019360BCA3FF543F30E509541FFEE4939C
:10097000A360010ECF54C025E060A840B8E493A363
:10098000FAE493A3F8E493A3C8C582C8CAC583CA8E
:10099000F0A3C8C582C8CAC583CADFE9DEE780BE46
:010AA5000050
:100AA600BB010689828A83E0225002E722BBFE024E
:090AB600E32289828A83E4932281
:00000001FF
