:03000000020CB53A
:0C0CB500787FE4F6D8FD758120020CFC6D
:1009F5006869005265736F7572636573206176610E
:100A0500696C61626C653A20000D0A00507265736D
:100A150073204920666F7220497373756520616E76
:100A250064205220666F722052657475726E00459F
:100A35006E746572207265736F7572636520746F6D
:100A450020626520626F72726F7765643A20004993
:100A55006E76616C696420696E64657800456E74B4
:100A65006572207175616E7469747920746F206286
:100A75006520626F72726F7765643A200052657106
:100A8500756573746564207265736F75726365202F
:100A9500616C6C6F63617465642100526571756585
:100AA50073746564207265736F75726365206E6F0C
:100AB5007420617661696C61626C652E2E2E00452D
:100AC5006E746572207265736F7572636520746FDD
:100AD5002062652072657475726E65643A200D0A30
:100AE50000596F752063616E277420726574757285
:100AF5006E207768617420796F7520646F6E277436
:100B050020686176652E2E2E00456E746572207103
:100B150075616E746974793A200052657475726EE8
:100B25006564207265736F75726365206F757420D7
:100B35006F6620626F756E64730052657475726EB0
:100B45006564207265736F75726365207265636590
:100B550069766564210D0A0044534F414647444D6B
:080B65004D445053353538367C
:0A0E3500C101C100040B3535383649
:100D4100E4F5A0C282C280C2817F38FE120DF11289
:100D51000DCD7F067E00120DF1120DCD7F0C7E00B0
:100D6100120DF1120DCD7F017E00120DF1120DCD8C
:070D71007F807E00020DF1FE
:040DCD007F047E0021
:100DD100E4FDFCC3ED9FEC9E5015E4FBFA0BBB0058
:0F0DE100010ABA01F8BB7EF50DBD00010C80E4DC
:010DF00022E0
:100B6D008E128F138B148A1589167C277D10120C0B
:100B7D0060EF2430120C2CAE12AF137C277D1012B7
:100B8D000C607E037FE8CFCDCFCECCCE120C60EFC4
:100B9D002430AB14AA15A916900001120C3EAE120A
:100BAD00AF137C037DE8120C607E007F64CFCDCF48
:100BBD00CECCCE120C60EF2430AB14AA15A9169032
:100BCD000002120C3EAE12AF137C007D64120C605D
:100BDD007E007F0ACFCDCFCECCCE120C60EF24306D
:100BED00AB14AA15A916900003120C3EAE12AF134A
:100BFD007C007D0A120C60ED2430AB14AA15A916E9
:060C0D00900004020C3E01
:100DF100C280C281D2828FA07F0A7E00120DD1C231
:020E010082224B
:100E0300D280C281D2828FA07F0A7E00120DD1C20E
:020E1300822239
:100DA8008B178A188919AB17AA18A919120C13607E
:100DB800130519E5197002051814F9120C13FF121E
:050DC8000E0380E22291
:100E1500758920758DF3D2AFD2AC759850D28E22DC
:080E4A008F993001FDC2012265
:0B0D7800120E408F087BFF7A0A790EF4
:100D83008B178A188919AB17AA18A919120C1360A3
:100D9300130519E5197002051814F9120C13FF1243
:050DA3000E4A80E2226F
:090E4000E4FF3000FDC200AF998F
:010E49002286
:03002300020E25A5
:100E2500309905C299D20132309804C298D2003265
:10080000120E15120D41120DCD7F80120DF17BFFDE
:100810007A0979F5120DA80209E9E50A60030208D0
:10082000D17BFF7A0979F8120D83E4F510E5107594
:10083000F003A4F511E51075F003A42403FFE435DB
:10084000F0FEC3E5119FEE6480F8748098500EE5C9
:1008500011900B5D93FF120E4A051180D87F2D1267
:100860000E4A740B2510F8E6FF120E4A7F20120E76
:100870004A0510E510C3940440B3120D7D7BFF7A46
:100880000A7911120D83120D7D120E408F0FE50FA4
:10089000B469047F0180027F00E50FB449047E0142
:1008A00080027E00EE4F6006750A0102081AE50F0D
:1008B000B472047F0180027F00E50FB452047E0110
:1008C00080027E00EE4F6006750A0202081A0209D5
:1008D000E9E50A640170727BFF7A0A7934120D83AC
:1008E000120E40EF24CFF509D3940340147BFF7A16
:1008F0000A7954120D83120D7D120E408F0F0209DA
:10090000E9120D7D7BFF7A0A7962120D83120D7850
:10091000740B2509F8E6FFE508D39F7BFF50157A95
:100920000A7982120D83740B2509F8E6C395082411
:1009300030F680077A0A79A0120D83120D7DE4F556
:100940000A120E408F0F02081AE50A6402600302C1
:1009500009EF7BFF7A0A79C4120D83120E40EF244F
:10096000CFF509D3940340147BFF7A0A7954120D12
:1009700083120D7D120E408F0F0209E9E509900BDD
:100980006993FF740B2509F8E6B507137BFF7A0A14
:1009900079E6120D83120D7D120E408F0F804A7B77
:1009A000FF7A0B790E120D83120D78740B2509F85E
:1009B000E6250824D0FFE509900B6993FEEFD39E4E
:1009C0007BFF400C7A0B791F120D83120D7D801472
:1009D0007A0B793F120D83E50824D0FF740B2509AB
:1009E000F8EF26F6120E408F0FE4F50A02081AE41B
:0509F000F50A02081ADF
:100CC100020800E493A3F8E493A34003F68001F241
:100CD10008DFF48029E493A3F85407240CC8C33334
:100CE100C4540F4420C8834004F456800146F6DF03
:100CF100E4800B0102040810204080900E35E47E50
:100D0100019360BCA3FF543F30E509541FFEE493F7
:100D1100A360010ECF54C025E060A840B8E493A3BE
:100D2100FAE493A3F8E493A3C8C582C8CAC583CAE9
:100D3100F0A3C8C582C8CAC583CADFE9DEE780BEA1
:010E3F0000B2
:100C1300BB010689828A83E0225002E722BBFE02DF
:090C2300E32289828A83E4932212
:100C2C00BB010689828A83F0225002F722BBFE01A7
:020C3C00F322A1
:100C3E00F8BB010DE58229F582E5833AF583E8F0EC
:100C4E00225006E92582C8F622BBFE05E92582C898
:020C5E00F22280
:100C6000BC000BBE0029EF8DF084FFADF022E4CC78
:100C7000F875F008EF2FFFEE33FEEC33FCEE9DEC41
:100C8000984005FCEE9DFE0FD5F0E9E4CEFD22ED87
:100C9000F8F5F0EE8420D21CFEADF075F008EF2FD1
:100CA000FFED33FD4007985006D5F0F222C398FDC2
:050CB0000FD5F0EA225F
:00000001FF
