:03000000020B41AF
:0C0B4100787FE4F6D8FD758127020B8850
:0F0E16000D0A00566F6C742E3A2000206D5600A6
:0E0E2500C100C102C101062100000000000052
:100D1700E4F5A0C282C280C2817F38FE120DD212D2
:100D27000D987F067E00120DD2120D987F0C7E0063
:100D3700120DD2120D987F017E00120DD2120D985E
:070D47007F807E00020DD247
:040D98007F047E0056
:100D9C00E4FDFCC3ED9FEC9E5015E4FBFA0BBB008D
:0F0DAC00010ABA01F8BB7EF50DBD00010C80E411
:010DBB002215
:100A9B008E0E8F0F8B108A1189127C277D10120AF4
:100AAB0012EF24301209DEAE0EAF0F7C277D101231
:100ABB000A127E037FE8CFCDCFCECCCE120A12EF37
:100ACB002430AB10AA11A9129000011209F0AE0E3E
:100ADB00AF0F7C037DE8120A127E007F64CFCDCF6F
:100AEB00CECCCE120A12EF2430AB10AA11A9129061
:100AFB0000021209F0AE0EAF0F7C007D64120A12D9
:100B0B007E007F0ACFCDCFCECCCE120A12EF24308F
:100B1B00AB10AA11A9129000031209F0AE0EAF0F81
:100B2B007C007D0A120A12ED2430AB10AA11A91217
:060B3B009000040209F025
:100DD200C280C281D2828FA07F0A7E00120D9CC285
:020DE20082226B
:100DE400D280C281D2828FA07F0A7E00120D9CC263
:020DF400822259
:100D4E008B0E8A0F8910AB0EAA0FA9101209C5605F
:100D5E00130510E5107002050F14F91209C5FF12E4
:050D6E000DE480E2220B
:0C0E340075C3BC43B104D2AF43C34022DD
:080CBB008F1D8E1C8D1B8C1A8D
:100CC300C2007810120A75E48FC53000FDA927C24F
:100CD30000AF1DAE1CAD1BAC1A7808120A758FC588
:100CE3003000FDAB27C200E51DFF8FC53000FDAD11
:100CF30027EB7B00FA7E00E97810C333CE33CED8DE
:100D0300F92BFFEE3AFE7C00EF2DFFEC3EFE339510
:030D1300E0FDFC04
:010D160022BA
:03004B00020DBCE7
:100DBC00C0E0C0D0E5C454F02480700585C527D2AE
:060DCC0000D0D0D0E0329F
:030E5200D2942215
:020C5600AB07EA
:100C5800E4F515F514751301F512EF75F010A47E7F
:100C6800005470FFEE3395E0FDFCEF4480FFED7813
:100C780008120A888F198E188D178C16E5152519F4
:100C8800FFE5143518FEE5133517FDE5123516FC9A
:100C9800C294120CBB8F118E108D0F8C0ED294E55E
:100CA80011F511E5105403F510E4F50FF50EAE102B
:020CB800AF117A
:010CBA002217
:100DF600758920758DF3759840D2ACD2AFD28E220C
:080E4A008F993002FDC2022263
:100D73008B0E8A0F8910AB0EAA0FA9101209C5603A
:100D8300130510E5107002050F14F91209C5FF12BF
:050D93000E4A80E2227F
:090E4000E4FF3001FDC201AF998D
:010E49002286
:03002300020E06C4
:100E0600309905C299D20232309804C298D2013282
:100BCD00E4F508F509F50AF50B120E34120E521262
:100BDD000D17120DF6120D987F80120DD27BFF7A34
:100BED000E7919120D4E7F8C7E00120DD27BFF7A7D
:060BFD000E7921120D4EDD
:100C0300E4FF120C568E0C8F0DAC0CAD0DE41209E3
:100C13000B7B827A73794E78401208001209448E56
:100C23000A8F0B7B007A007921120A9B7F877E0053
:100C3300120DD2120D987B007A007921120D4E7B92
:100C4300007A007921120D737BFF7A0E7916120D4B
:010C5300732D
:020C540080AD71
:10080000EC4D6011E8497017ED33EC3304600DE4F2
:10081000FCFFFEFD22E933E8330470F80209B01250
:10082000097B58046009E4CC248150062850090251
:1008300009BA2840030209B7C0E0EB4A7044B98006
:1008400006D0E0FB0209A6EF4E701CBD8008EBFF4E
:10085000EAFEE9FD80EBE98DF0A4FEE5F00208E98F
:10086000E9CDF9EAFEEBFFEF89F0A4FCE5F0CE89D3
:10087000F0A42EFFE435F0CD89F0A42DFEE435F090
:100880008067EF4E7005BD80D780C3EF8BF0A4ACBE
:10089000F0EE8BF0A42CFCE435F0F8EF8AF0A42CF9
:1008A000E5F038FCE433CB8DF0A42CFCE5F03BF80C
:1008B000EE8AF0A42CFCE5F038F8E433CF89F0A4FC
:1008C0002CFCE5F038CF3400CE89F0A42FFFE5F002
:1008D0003EFEE433C98DF0A42EFEE5F039CD8AF05A
:1008E000A42FFFE5F03EFEE43DFD33D0E0FB5007D2
:1008F0000BBB000F0209BAEC2CFCEF33FFEE33FE0A
:06090000ED33FD02099237
:1009060075F020800E75F010800575F0087D007E6C
:10091600007F003392D530D503120A67EC334010BE
:10092600EF33FFEE33FEED33FDEC33FCD5F0ED2275
:0E093600E5F0247EA2D513CC92E7CDCEFF22B1
:10094400EDD2E7CD33EC3392D524814006E4FFFEAB
:10095400FDFC22FCE4CFCECDCC24E0501174FF800A
:10096400EDC3CC13CCCD13CDCE13CECF13CF0470A7
:07097400F030D5DE020A6736
:10097B00E9D2E7C933E833F892D5EDD2E7CD33ECC2
:07098B0033FC5002B2D5223B
:10099200EC30E7100FBF000C0EBE00080DBD0004C6
:1009A2000BEB6014A2D5EB13FCED92E7FD2274FF72
:1009B200FCFDFEFF22E480F8A2D574FF13FC7D80CB
:0309C200E480EFDF
:100B4D00020BCDE493A3F8E493A34003F68001F2E6
:100B5D0008DFF48029E493A3F85407240CC8C333A9
:100B6D00C4540F4420C8834004F456800146F6DF78
:100B7D00E4800B0102040810204080900E25E47ED5
:100B8D00019360BCA3FF543F30E509541FFEE4936D
:100B9D00A360010ECF54C025E060A840B8E493A334
:100BAD00FAE493A3F8E493A3C8C582C8CAC583CA5F
:100BBD00F0A3C8C582C8CAC583CADFE9DEE780BE17
:010E330000BE
:1009C500BB010689828A83E0225002E722BBFE0230
:0909D500E32289828A83E4932263
:1009DE00BB010689828A83F0225002F722BBFE01F8
:0209EE00F322F2
:1009F000F8BB010DE58229F582E5833AF583E8F03D
:100A0000225006E92582C8F622BBFE05E92582C8E8
:020A1000F222D0
:100A1200BC000BBE0029EF8DF084FFADF022E4CCC8
:100A2200F875F008EF2FFFEE33FEEC33FCEE9DEC91
:100A3200984005FCEE9DFE0FD5F0E9E4CEFD22EDD7
:100A4200F8F5F0EE8420D21CFEADF075F008EF2F21
:100A5200FFED33FD4007985006D5F0F222C398FD12
:050A62000FD5F0EA22AF
:0E0A6700C3E49FFFE49EFEE49DFDE49CFC22A0
:100A7500E8600FECC313FCED13FDEE13FEEF13FF5F
:030A8500D8F12283
:100A8800E8600FEFC333FFEE33FEED33FDEC33FCCC
:030A9800D8F12270
:00000001FF
