:03000000020B747C
:0C0B7400787FE4F6D8FD758112020800BD
:1009D000202053544152542050524F4752414D20F1
:1009E000002020464952535420494E50555420204F
:1009F00020002020204E45585420494E5055542068
:100A0000202000202020534F5254494E472E2E2E96
:100A1000202020002020202020534F5254494E47B0
:100A2000202020200020202020434F4D504C4554B2
:100A300045202020200020204E554D424552205474
:100A40004F20424520200020202020534541524382
:100A5000484544202020200054484520494E444524
:100A6000582049530020202020204E554D42455209
:100A70002020202020002020204E4F5420464F557B
:100A80004E44202020200020202020202020202034
:080A900020202020202020007E
:100A9800E4F5A0C282C280C2817F38FE120B377F84
:100AA800047E00120B107F067E00120B377F047E37
:100AB80000120B107F0C7E00120B377F047E001291
:100AC8000B107F017E00120B377F047E00120B1083
:070AD8007F807E00020B3756
:060B0A00F5907F887E13C8
:100B1000E4FDFCC3ED9FEC9E5015E4FBFA0BBB001B
:0F0B2000010ABA01F8BB7EF50DBD00010C80E49F
:010B2F0022A3
:070B3000120B107F807E0014
:100B3700C280C281D2828FA07F0A7E00120B10C2B0
:020B4700822208
:100B6200D280C281D2828FA07F0A7E00120B10C275
:020B72008222DD
:060ADF007BFF7A0A798713
:100AE5008B108A118912AB10AA11A912120B496039
:100AF500130512E5127002051114F9120B49FF12C4
:050B05000B6280E222FA
:10080000E4F590120A98120B337F047E00120B104D
:100810007BFF7A0979D0120AE57F887E13120B30AC
:100820007BFF7A0979E1120AE575900F120B0CE54E
:1008300090540FF50DF508750E01120B337BFF7AFE
:100840000979F2120AE5E50DC454F0F50D440F12D2
:100850000B0AE590540FF50D7408250EF8A60D123D
:100860000B33120ADF7FF47E01120B10050EE50E2A
:10087000D3940440C5120B337BFF7A0A7903120A22
:10088000E5E50DC454F0F50D120B0AE4F50EE50E86
:1008900004F50FE50FD39404504A7408250FF8E6C9
:1008A000FF7408250EF8E6D39F40357408250EF82E
:1008B000EF26F67408250FF8E6FF7408250EF8E613
:1008C000C39FFF7408250FF8A6077408250EF8C00B
:1008D00000E6FF7408250FF8E6FEC3EF9ED000F691
:1008E000050F80AF050EE50EB405A3E4F5907FE893
:1008F0007E03120B307BFF7A0A7914120AE57FC05F
:100900007E00120B377BFF7A0A7925120AE57FE811
:100910007E03120B10E4F50E7408250EF8E6C4549D
:10092000F0120B0AE4F5907FE87E03120B10050E1F
:10093000E50ED3940440E17590FF120B337BFF7AF0
:100940000A7936120AE57FC07E00120B377BFF7AE8
:100950000A7947120AE5120B0CE590540FF50D12B7
:100960000B33120ADF7FC07E00120B37120ADF7FC3
:10097000E87E03120B10E4F50FF50E7408250EF84F
:10098000E6B50D05750F018007050EE50EB405EB04
:10099000E50F7F807E00B40116120B377BFF7A0AC9
:1009A0007958120AE5E50E04C454F0F590801F1240
:1009B0000B377BFF7A0A7965120AE57FC07E001249
:1009C0000B377BFF7A0A7976120AE57590F080FE84
:100B4900BB010689828A83E0225002E722BBFE02AA
:090B5900E32289828A83E49322DD
:00000001FF
