:03000000020100FA
:06010000313031EC80FCFF
:100130007570F77590FF31D875900F31C4E590F563
:1001400071757205757300F574A872F575183155DF
:10015000D8FC318A22C000C001C002C003C004A87C
:1001600073A9747A007B00AC75EA2CFAEB3400FBBF
:1001700019B900F5B8000F8B738A74D004D003D07E
:1001800002D001D0002218020169C000C001C002E3
:10019000C003C285A8707900AA74AB73EA98FA50BC
:1001A00006EB9400400CFB098A73BA00EFBB00EC2D
:1001B0007FAAD003D002D001D00022C00078F4D8AA
:1001C000FED00022C000C001785079FA1201BBD9DC
:1001D000FBD8F7D001D00022C000C001785079329E
:1001E0001201BBD9FBD8F7D001D00022E573F590FE
:1001F00031C475900031D8C4F59031C47590003188
:02020000D82202
:00000001FF
