:03000000020C8966
:0C0C8900787FE4F6D8FD758148020CD09D
:0E0DCF0050726F64313D0054696D65313D0016
:100D95000B2C0000000000000000000000062400ED
:050DA500000000000049
:100D1500E4F5A0C282C280C2817F38FE120DAB12FB
:100D25000D717F067E00120DAB120D717F0C7E00DA
:100D3500120DAB120D717F017E00120DAB120D71FC
:070D45007F807E00020DAB70
:040D71007F047E007D
:100D7500E4FDFCC3ED9FEC9E5015E4FBFA0BBB00B4
:0F0D8500010ABA01F8BB7EF50DBD00010C80E438
:010D9400223C
:100BE3008E448F458B468A4789487C277D10120A9D
:100BF30071EF2430120A3DAE44AF457C277D1012BD
:100C03000A717E037FE8CFCDCFCECCCE120A71EF2F
:100C13002430AB46AA47A948900001120A4FAE44BC
:100C2300AF457C037DE8120A717E007F64CFCDCF90
:100C3300CECCCE120A71EF2430AB46AA47A9489016
:100C43000002120A4FAE44AF457C007D64120A7164
:100C53007E007F0ACFCDCFCECCCE120A71EF2430E7
:100C6300AB46AA47A948900003120A4FAE44AF45CA
:100C73007C007D0A120A71ED2430AB46AA47A948CD
:060C8300900004020A4F7C
:100DAB00C280C281D2828FA07F0A7E00120D75C2D3
:020DBB00822292
:100DBD00D280C281D2828FA07F0A7E00120D75C2B1
:020DCD00822280
:100D4C008B448A458946AB44AA45A946120A2460BD
:100D5C00130546E5467002054514F9120A24FF12E4
:050D6C000DBD80E22234
:10080000E4753BEB753A38F539F538753FBC753E04
:1008100021F53DF53C758910F58DF58BD28E7B0A5F
:10082000FAF9F8AF3BAE3AAD39AC38120B518F0F35
:100830008E0E8D0D8C0CE47B0AFAF9F8AF3BAE3AC4
:10084000AD39AC38120B51AC00AD01AE02AF038F25
:100850000B8E0A8D098C08E47B0AFAF9F8AF3FAEDB
:100860003EAD3DAC3C120B518F1B8E1A8D198C186E
:10087000E47B0AFAF9F8AF3FAE3EAD3DAC3C120B5B
:1008800051AC00AD01AE02AF038F138E128D118CEF
:1008900010AB0BAA0AA909A808120AC68F178E1650
:1008A0008D158C14E513251BFBE512351AFAE5119D
:1008B0003519F9E5103518F8E50B250FFFE50A3570
:1008C0000EFEE509350DFDE508350CFC120AC68F54
:1008D0001F8E1E8D1D8C1CAF1BAE1AAD19AC18AB34
:1008E0000FAA0EA90DA80C120AC68F238E228D21E5
:1008F0008C20C3E51F9517FFE51E9516FEE51D9597
:1009000015FDE51C9514FCC3EF9523FFEE9522FE23
:10091000ED9521FDEC9520FCE47B0AFAF9F8120A2A
:10092000C6EF2517FFEE3516FEED3515FDEC351437
:10093000FCC004C005C006C007E47F64FEFDFCAB3C
:1009400023AA22A921A820120AC6D003D002D001CE
:10095000D000EF2BF543EE3AF542ED39F541EC3896
:10096000F540C28EAF8DEFFEAD8BEDFFEEC313F5FC
:100970002AEF13F52B120D15120D71753709E47B53
:100980000AFAF9F8AF43AE42AD41AC40120B51EB5D
:100990002430FF742C2537F8A607E47B0AFAF9F80F
:1009A000AF43AE42AD41AC40120B51C3E5439BF5A2
:1009B00043E5429AF542E54199F541E54098F54015
:1009C000AF43AE42AD41FCE47B0AFAF9F8120B5199
:1009D0008F438E428D418C401537C3E53764809438
:1009E00080509B7B007A007924AF2BAE2A120BE358
:1009F0007F807E00120DAB7BFF7A0D79CF120D4CFC
:100A00007B007A00792C120D4C7FC07E00120DAB5A
:100A10007BFF7A0D79D6120D4C7B007A0079241277
:040A20000D4C80FEFB
:100C9500020800E493A3F8E493A34003F68001F26D
:100CA50008DFF48029E493A3F85407240CC8C33360
:100CB500C4540F4420C8834004F456800146F6DF2F
:100CC500E4800B0102040810204080900D95E47E1D
:100CD500019360BCA3FF543F30E509541FFEE49324
:100CE500A360010ECF54C025E060A840B8E493A3EB
:100CF500FAE493A3F8E493A3C8C582C8CAC583CA16
:100D0500F0A3C8C582C8CAC583CADFE9DEE780BECD
:010DAA000048
:100A2400BB010689828A83E0225002E722BBFE02D0
:090A3400E32289828A83E4932203
:100A3D00BB010689828A83F0225002F722BBFE0198
:020A4D00F32292
:100A4F00F8BB010DE58229F582E5833AF583E8F0DD
:100A5F00225006E92582C8F622BBFE05E92582C889
:020A6F00F22271
:100A7100BC000BBE0029EF8DF084FFADF022E4CC69
:100A8100F875F008EF2FFFEE33FEEC33FCEE9DEC32
:100A9100984005FCEE9DFE0FD5F0E9E4CEFD22ED78
:100AA100F8F5F0EE8420D21CFEADF075F008EF2FC2
:100AB100FFED33FD4007985006D5F0F222C398FDB3
:050AC1000FD5F0EA2250
:100AC600E88FF0A4CC8BF0A42CFCE98EF0A42CFCCF
:100AD6008AF0EDA42CFCEA8EF0A4CDA8F08BF0A44D
:100AE6002DCC3825F0FDE98FF0A42CCD35F0FCEBAC
:100AF6008EF0A4FEA9F0EB8FF0A4CFC5F02ECD3971
:0F0B0600FEE43CFCEAA42DCE35F0FDE43CFC22DD
:100B150075F008758200EF2FFFEE33FECD33CDCC97
:100B250033CCC58233C5829BED9AEC99E58298401A
:100B35000CF582EE9BFEED9AFDEC99FC0FD5F0D6F7
:100B4500E4CEFBE4CDFAE4CCF9A88222B800C1B921
:100B55000059BA002DEC8BF084CFCECDFCE5F0CB5F
:100B6500F97818EF2FFFEE33FEED33FDEC33FCEB98
:100B750033FB10D703994004EB99FB0FD8E5E4F953
:100B8500FA227818EF2FFFEE33FEED33FDEC33FC40
:100B9500C933C910D7059BE99A4007EC9BFCE99A34
:100BA500F90FD8E0E4C9FAE4CCFB2275F010EF2F79
:100BB500FFEE33FEED33FDCC33CCC833C810D70779
:100BC5009BEC9AE899400AED9BFDEC9AFCE899F8B4
:0E0BD5000FD5F0DAE4CDFBE4CCFAE4C8F92247
:00000001FF
