:100AA00010083132334134353642373839432A3031
:020AB0002344DD
:1009E700E4F5A0C282C280C2817F38FE120AB31228
:1009F7000A437F067E00120AB3120A437F0C7E0069
:100A0700120AB3120A437F017E00120AB3120A4385
:070A17007F807E00020AB39C
:040A43007F047E00AE
:100A4700E4FDFCC3ED9FEC9E5015E4FBFA0BBB00E5
:0F0A5700010ABA01F8BB7EF50DBD00010C80E469
:010A6600226D
:100AB300C280C281D2828FA07F0A7E00120A47C2FF
:020AC30082228D
:100AC500D280C281D2828FA07F0A7E00120A47C2DD
:020AD50082227B
:100A1E008B188A19891AAB18AA19A91A120A876093
:100A2E0013051AE51A7002051914F9120A87FF1236
:050A3E000AC580E22260
:100800001209E775B00F75B00FAFB053070FEF6463
:100810000F70F67F147E00120A67AFB053070FEF18
:10082000640F60EF7F147E00120A67AFB053070FAA
:10083000EF640F60DE75B0EFAFB053070FEF640FDA
:100840006005E4F51B803475B0DFAFB053070FEFE0
:10085000640F6005751B01802275B0BFAFB05307F0
:100860000FEF640F6005751B02801075B07FAFB08D
:1008700053070FEF640F60BD751B03EFFD7C006431
:1008800007700AE51B25E025E024088027ED640BAE
:100890004C700AE51B25E025E024098017EF640D64
:1008A000700AE51B25E025E0240A8008E51B25E009
:1008B00025E0240BF8E6F51CE51CB4300675900F16
:1008C000020953E51CB4310675901F020953E51C5B
:1008D000B4320575902F807BE51CB4330575903FCD
:1008E0008071E51CB4340575904F8067E51CB43504
:1008F0000575905F805DE51CB4360575906F80537B
:10090000E51CB4370575907F8049E51CB438057542
:10091000908F803FE51CB4390575909F8035E51CAC
:10092000B441057590AF802BE51CB442057590BFAE
:100930008021E51CB443057590CF8017E51CB444B5
:10094000057590DF800DE51CB42A057590EF8003D6
:0B0950007590FFAF1C120AC5020806DC
:100A6700E4FDFCE4FBFAC3EB9FEA9E50070BBB00D7
:0F0A7700010A80F20DBD00010CBC04E7BDFBE4D9
:010A8600224D
:0300000002095B97
:0C095B00787FE4F6D8FD75811C0209A22B
:100A8700BB010689828A83E0225002E722BBFE026D
:090A9700E32289828A83E49322A0
:10096700020800E493A3F8E493A34003F68001F29E
:1009770008DFF48029E493A3F85407240CC8C33391
:10098700C4540F4420C8834004F456800146F6DF60
:10099700E4800B0102040810204080900AA0E47E46
:1009A700019360BCA3FF543F30E509541FFEE49355
:1009B700A360010ECF54C025E060A840B8E493A31C
:1009C700FAE493A3F8E493A3C8C582C8CAC583CA47
:1009D700F0A3C8C582C8CAC583CADFE9DEE780BEFF
:010AB2000043
:00000001FF
